S01500006E69626F436F6E6669674156522E7372656328
S11300000C9434000C940F010C9438010C9451009E
S11300100C9451000C9451000C9451000C94510018
S11300200C9451000C9451000C9451000C94510008
S11300300C9451000C9451000C9461010C945100E7
S11300400C9451000C9451000C9451020C945100E6
S11300500C9451000C9451000C9451000C945100D8
S11300600C9451000C94510011241FBECFEFD8E022
S1130070DEBFCDBF11E0A0E0B1E0E8EBF7E102C0E4
S113008005900D92AE3CB107D9F721E0AEECB1E09A
S113009001C01D92AB3EB207E1F70E945D050C94CE
S11300A0DA0B0C940000E9EBF0E080818C7F808314
S11300B080EC8093B800089584EA8093BC00ECEB54
S11300C0F0E080818823ECF7089584E98093BC00F4
S11300D008958093BB0084E88093BC00ECEBF0E0CF
S11300E080818823ECF78091B900887F883191F072
S11300F08091B900887F883279F08091B900887F37
S1130100803261F09091B900987F81E0903339F0AA
S113011080E0089580E0089580E0089581E00895E6
S1130120E1ECF0E0208128612083E2ECF0E0208122
S11301302E602083DC01CB01880F991FAA1FBB1FEF
S1130140880F991FAA1FBB1F9C01AD01220F331FEB
S1130150441F551F220F331F441F551F60E074E2D4
S113016084EF90E00E94B608DA01C9010197A10961
S1130170B109892F9A2FAB2FBB278093C50021503B
S11301802093C400089560E875E280E090E00E9446
S1130190900008958091C00088231CF48091C600CB
S11301A0089580E00895E0ECF0E0908195FFFDCFA4
S11301B08093C6000895CF93DF93EC018881882350
S11301C031F021960E94D30089918111FBCFDF91F8
S11301D0CF910895009761F020E030E040E951E0CC
S11301E0FA013197F1F72F5F3F4F82179307C1F759
S11301F008950F931F93CF93DF93009759F08C01C9
S1130200C0E0D0E08AE090E00E94EA0021960C175A
S11302101D07C1F7DF91CF911F910F9108951F9290
S11302200F920FB60F9211242F933F934F935F9326
S11302306F937F938F939F93AF93BF93EF93FF93AA
S1130240E898E091D201F091D3010995E89AFF91E1
S1130250EF91BF91AF919F918F917F916F915F913A
S11302604F913F912F910F900FBE0F901F901895B3
S11302701F920F920FB60F9211242F933F934F9317
S11302805F936F937F938F939F93AF93BF93EF93FA
S1130290FF93E998E091D601F091D7010995E99A85
S11302A0FF91EF91BF91AF919F918F917F916F914A
S11302B05F914F913F912F910F900FBE0F901F9020
S11302C018951F920F920FB60F9211242F933F93FC
S11302D04F935F936F937F938F939F93AF93BF934A
S11302E0CF93DF93EF93FF93CEE6D0E088818D7FA9
S11302F08883E091D001F091D101099588818260D1
S11303008883FF91EF91DF91CF91BF91AF919F913E
S11303108F917F916F915F914F913F912F910F90AA
S11303200FBE0F901F901895CF92DF92EF92FF921D
S11303306B017C0120E53EE842E85CE30E944F0744
S113034088233CF481E090E09093CF018093CE0128
S113035039C02CE53FE842E05EE3C701B6010E94E4
S11303604F0788233CF488E090E09093CF0180937A
S1130370CE0128C02CE53FE842E85FE3C701B6019F
S11303800E944F0788233CF480E490E09093CF01CF
S11303908093CE0117C02CE53FE842E850E4C70142
S11303A0B6010E944F0788233CF480E091E09093CB
S11303B0CF018093CE0106C080E094E09093CF01FA
S11303C08093CE016091CE017091CF0180E89EE3CD
S11303D00E94A20880E090E00E948307A701960192
S11303E00E94350820E030E040E85FE30E94E20626
S11303F00E945407862FFF90EF90DF90CF900895CE
S11304009093D1018093D00184B5826084BDCB01E7
S1130410BA010E94940187BD089540E050E060E86D
S11304207FE30E94000208958091CE019091CF0154
S113043080349105B9F030F48130910559F0089772
S113044069F01BC0811521E0920781F08115944069
S113045089F013C085B5816085BD0FC085B5826004
S113046085BD0BC085B5836085BD07C085B5846037
S113047085BD03C085B5856085BDEEE6F0E080816D
S113048082608083789408950E941402089515BCB4
S1130490EEE6F0E080818D7F808308950E9447021C
S11304A008951F920F920FB60F9211242F933F932A
S11304B04F935F936F937F938F939F93AF93BF9368
S11304C0EF93FF93E091D401F091D5010995FF9149
S11304D0EF91BF91AF919F918F917F916F915F91B8
S11304E04F913F912F910F900FBE0F901F90189531
S11304F0413051F58B32910559F42AB181E090E0F5
S113050002C0880F991F6A95E2F7822B8AB9089571
S11305108532910559F424B181E090E002C0880F3E
S1130520991F6A95E2F7822B84B90895889709F098
S113053047C027B181E090E002C0880F991F6A95F7
S1130540E2F7822B87B908958B32910569F45AB189
S113055021E030E0062E02C0220F331F0A94E2F796
S1130560209525232AB91FC08532910569F454B119
S113057021E030E0062E02C0220F331F0A94E2F776
S11305802095252324B90FC08832910561F457B111
S113059021E030E0062E02C0220F331F0A94E2F756
S11305A02095252327B941110BC0FC01408121E08E
S11305B030E002C0220F331F6A95E2F7242B208318
S11305C008958B32910549F489B190E002C0959564
S11305D087956A95E2F7817008958532910549F40B
S11305E083B190E002C0959587956A95E2F7817092
S11305F00895889749F486B190E002C0959587954F
S11306006A95E2F78170089580E008958AE090E0A9
S11306100E94EA000895CF93C82F0E945C008EE4E4
S11306200E9469008C2F0E9469000E946500CF918E
S11306300895CF93C82F8C600E940B038C2F8B7F5F
S113064088600E940B03CF910895CF93C82F0E9416
S113065006038C2F807F0E9419038C2F8295807F44
S11306600E941903CF910895CF93C82F0E940603C7
S11306708C2F807F81600E9419038C2F8295807F4C
S113068081600E941903CF9108958CE390E00E9449
S1130690F9000E94530080E30E94190384E190E072
S11306A00E94F90080E30E9419038AE090E00E940E
S11306B0F90080E30E9419038AE090E00E94F900A7
S11306C080E20E94190388E20E9425038CE00E94C4
S11306D0250384E10E942503089581E00E942503F7
S11306E00895833031F0843031F0823031F490E475
S11306F005C090E103C090E501C090E08FEF860F44
S1130700890F80680E9425030895863D09F168F4E5
S1130710803B51F128F48C3519F1803819F1089592
S1130720853BE1F0843C71F00895843E59F028F44F
S11307308C3D81F08F3D81F00895863F29F08C3FF8
S113074029F0089581EE08958FEE089585EF0895B8
S11307508FEE089585EF089582EE089584EE08954E
S113076084EA089583ED08958FED08950E9485032A
S11307700E9434030895CF93DF93EC01888188238A
S113078031F021960E94B60389918111FBCFDF914C
S1130790CF9108950F931F93CF93DF9300D000D090
S11307A01F92CDB7DEB7FC0180E041E0480F01E0C5
S11307B010E00C0F1D1F080F111D9F01ADECBCECC8
S11307C00E94D808969587959695879596958795CE
S11307D09C01220F331F880F991F880F991F880FC0
S11307E0991F820F931F9F01281B390BC901805D3C
S11307F0D8018C939F01ADECBCEC0E94D808FC019D
S1130800F695E795F695E795F695E795842F309755
S113081061F6453070F480E211E0140FE1E0F0E09D
S1130820EC0FFD1FE40FF11D8083412F1530A1F75C
S113083003C0442369F0142F1150E1E0F0E0EC0F01
S1130840FD1FE10FF11D80810E94B6031111F4CF49
S11308500F900F900F900F900F90DF91CF911F91F9
S11308600F9108950F931F93CF93DF938C016830FA
S1130870A0F4660F660F660F862F887380640E944B
S113088025030BC089910E94B603C017D107D1F785
S113089061E081E00E94710304C0E801085F1F4F1A
S11308A0F1CFDF91CF911F910F910895CF93DF93F3
S11308B000D01F92CDB7DEB7FE013196BE016C5F4A
S11308C07F4F4DEC849F912D112496959695969586
S11308D0392F330F232F220F220F230F821B805D0A
S11308E08193892FE617F70769F78A810E94B60377
S11308F089810E94B6030F900F900F90DF91CF91E2
S113090008958091E9019091EA0101969093EA019A
S11309108093E90108950E94C30040E062E085E20B
S113092090E00E94780240E064E085E290E00E945A
S1130930780240E063E085E290E00E94780240E0C3
S113094065E085E290E00E94780281E894E00E94EC
S11309500D020E94450382E090E00E94F9000E948B
S11309606D0382E090E00E94F90061E088E091E08C
S11309700E94320462E080E091E00E94320461E06F
S113098081E00E9471038CE191E00E94BB0380ED41
S113099097E00E94F9000E946D0386E0ECE2F1E02A
S11309A0A8EDB1E001900D928A95E1F70895CF93F7
S11309B00E94DB001092EA011092E9010E944402B5
S11309C0C0E00FC08091E9019091EA01883E934014
S11309D040F00E944E02EC2FF0E0E852FE4F1082ED
S11309E00BC00E94CA00882369F3EC2FF0E0E852A0
S11309F0FE4F8083CF5FF5CFCF91089561E082E011
S1130A000E94710382E391E00E94BB0364E085E2EB
S1130A1090E00E94E102811119C088E290E00E94F6
S1130A20F9008091100186302CF4809110018F5FC1
S1130A308093100164E085E290E00E94E102882343
S1130A40C9F388E290E00E94F9001FC063E085E2E8
S1130A5090E00E94E102811118C088E290E00E94B7
S1130A60F9008091100118162CF480911001815026
S1130A708093100163E085E290E00E94E102882304
S1130A80C9F388E290E00E94F9006BE081E00E94E3
S1130A907103E091100184E0E802F0011124EE54A6
S1130AA0FE4F808191810E94CA0365E085E290E057
S1130AB00E94E1028111AACF0895CF93DF93CDB7AD
S1130AC0DEB762970FB6F894DEBF0FBECDBF1A8AA9
S1130AD00E948B040F2EF1E18F2EF1E09F2EF02D5A
S1130AE00F2EFFE7AF2EF1E0BF2EF02D8E010F5F2A
S1130AF01F4F0F2EF7E1CF2EF1E0DF2EF02D0F2E3A
S1130B00FEE8EF2EF1E0FF2EF02D0F2EF2EA6F2E0D
S1130B10F1E07F2EF02D0E946D0361E081E00E94E0
S1130B20710382E491E00E94BB030E94FE04E09101
S1130B30100184E0E802F0011124EE54FE4F6081BC
S1130B407181828193810E9490000E946D0389E4E7
S1130B5091E00E94BB038BE491E00E94D70461E022
S1130B6082E00E9471038EE491E00E94BB0388ED51
S1130B7091E00E94BB0380ED97E00E94F9000E947F
S1130B806D036FE371E088ED91E00E94E708892B23
S1130B9009F00BC161E081E00E94710381E591E0FD
S1130BA00E94BB038BE591E00E94D70461E082E0E0
S1130BB00E9471038EE30E94B60388ED91E00E94C7
S1130BC0BB0380ED97E00E94F9000E946D0361E091
S1130BD081E00E94710386E691E00E94BB0361E01C
S1130BE082E00E9471038FE691E00E94BB038A8930
S1130BF08F5F8A8B40C064E085E290E00E94E1024E
S1130C00811116C088E290E00E94F9008A89843636
S1130C101CF48A898F5F8A8B64E085E290E00E94ED
S1130C20E1028823C9F388E290E00E94F9001CC025
S1130C3063E085E290E00E94E102811115C088E240
S1130C4090E00E94F9008A8982301CF08A898150E0
S1130C508A8B63E085E290E00E94E1028823C9F375
S1130C6088E290E00E94F9006CE081E00E94710348
S1130C708A890E94560465E085E290E00E94E102C0
S1130C808111B9CF8A89282F082E000C330B3F938A
S1130C908F939F928F92BF92AF921F930F930E9454
S1130CA0F0080E946D0361E081E00E9471038BE80B
S1130CB091E00E94BB03C8010E94BB03C8010E94CB
S1130CC0D70461E082E00E9471038EE30E94B603C0
S1130CD088ED91E00E94BB0380ED97E00E94F9004B
S1130CE0DF92CF92FF92EF921F930F930E94F0082E
S1130CF00E946D0361E081E00E9471038BE891E042
S1130D000E94BB03C8010E94BB03C8010E94D70410
S1130D1061E082E00E9471038EE30E94B60388EDD5
S1130D2091E00E94BB0380ED97E00E94F9000E94CD
S1130D306D0361E081E00E94710387E991E00E9404
S1130D40BB030E94FE0480911001082E000C990B35
S1130D5001969F938F937F926F921F930F930E949C
S1130D60F0080E946D0361E081E00E9471038BE84A
S1130D7091E00E94BB03C8010E94BB03C8010E940A
S1130D80D704E091100194E0E902F0011124EE543B
S1130D90FE4F60817181828193810E9490000FB621
S1130DA0F894DEBF0FBECDBFB6CE62E082E00E94F3
S1130DB071038CEA91E00E94BB0380ED97E00E94EE
S1130DC0F900A9CE5058BB27AA270E94FA060C9412
S1130DD0FB070E94ED0738F00E94F40720F039F475
S1130DE09F3F19F426F40C94EA070EF4E095E7FB10
S1130DF00C94E407E92F0E940C0858F3BA17620711
S1130E0073078407950720F079F4A6F50C942E084F
S1130E100EF4E0950B2EBA2FA02D0B01B901900111
S1130E200C01CA01A0011124FF27591B99F0593F55
S1130E3050F4503E68F11A16F040A22F232F342F9D
S1130E404427585FF3CF469537952795A795F040EB
S1130E505395C9F77EF41F16BA0B620B730B840B00
S1130E60BAF09150A1F0FF0FBB1F661F771F881FB8
S1130E70C2F70EC0BA0F621F731F841F48F4879510
S1130E8077956795B795F7959E3F08F0B0CF939502
S1130E90880F08F09927EE0F9795879508950E947B
S1130EA0C00708F481E008950E94140888F09F5751
S1130EB098F0B92F9927B751B0F0E1F0660F771F7A
S1130EC0881F991F1AF0BA95C9F714C0B13091F070
S1130ED00E942E08B1E008950C942E08672F782FF5
S1130EE08827B85F39F0B93FCCF386957795679535
S1130EF0B395D9F73EF490958095709561957F4FA1
S1130F008F4F9F4F0895E89409C097FB3EF4909546
S1130F108095709561957F4F8F4F9F4F9923A9F0CE
S1130F20F92F96E9BB279395F6958795779567955D
S1130F30B795F111F8CFFAF4BB0F11F460FF1BC0A1
S1130F406F5F7F4F8F4F9F4F16C0882311F096E934
S1130F5011C0772321F09EE8872F762F05C06623E2
S1130F6071F096E8862F70E060E02AF09A95660F9B
S1130F70771F881FDAF7880F9695879597F9089554
S1130F80990F0008550FAA0BE0E8FEEF1616170696
S1130F90E807F907C0F012161306E407F50798F0FE
S1130FA0621B730B840B950B39F40A2661F0232B17
S1130FB0242B252B21F408950A2609F4A140A69593
S1130FC08FEF811D811D089597F99F6780E870E078
S1130FD060E008959FEF80EC089500240A941616AB
S1130FE0170618060906089500240A941216130613
S1130FF0140605060895092E0394000C11F48823A1
S113100052F0BB0F40F4BF2B11F460FF04C06F5FBC
S11310107F4F8F4F9F4F089557FD9058440F551F92
S113102059F05F3F71F04795880F97FB991F61F066
S11310309F3F79F087950895121613061406551FDD
S1131040F2CF4695F1DF08C0161617061806991F49
S1131050F1CF86957105610508940895E894BB273E
S113106066277727CB0197F908950E9448080C94C6
S1131070FB070E94ED0738F00E94F40720F0952347
S113108011F00C94E4070C94EA0711240C942F0833
S11310900E940C0870F3959FC1F3950F50E0551F03
S11310A0629FF001729FBB27F00DB11D639FAA27B9
S11310B0F00DB11DAA1F649F6627B00DA11D661F08
S11310C0829F2227B00DA11D621F739FB00DA11D29
S11310D0621F839FA00D611D221F749F3327A00DE3
S11310E0611D231F849F600D211D822F762F6A2F7F
S11310F011249F5750409AF0F1F088234AF0EE0FE4
S1131100FF1FBB1F661F771F881F91505040A9F710
S11311109E3F510580F00C94E4070C942F085F3F28
S1131120E4F3983ED4F3869577956795B795F7954C
S1131130E7959F5FC1F7FE2B880F911D96958795C4
S113114097F90895AA1BBB1B51E107C0AA1FBB1F37
S1131150A617B70710F0A61BB70B881F991F5A953F
S1131160A9F780959095BC01CD010895A1E21A2EAE
S1131170AA1BBB1BFD010DC0AA1FBB1FEE1FFF1F37
S1131180A217B307E407F50720F0A21BB30BE40B87
S1131190F50B661F771F881F991F1A9469F76095CE
S11311A07095809590959B01AC01BD01CF01089588
S11311B0A29FB001B39FC001A39F700D811D112494
S11311C0911DB29F700D811D1124911D0895FB0185
S11311D0DC018D91019080190110D9F3990B0895C8
S11311E0AEE0B0E0E6EFF8E00C94B10B0D891E8997
S11311F086E08C831A8309838FEF9FE79E838D8318
S1131200AE01475E5F4F6F89788DCE0101960E94D3
S11312101209EF81F885E00FF11F10822E96E4E0A9
S11312200C94CD0BABE0B0E0E8E1F9E00C94A30B37
S11312306C017B018A01FC0117821682838181FF84
S1131240CCC1CE0101963C01F6019381F70193FDD7
S1131250859193FF81917F01882309F4BAC1853276
S113126039F493FD859193FF81917F01853229F4AF
S1131270B60190E00E94090BE7CF912C212C312C70
S1131280FFE1F315D8F08B3279F038F4803279F03D
S11312908332A1F4232D20611DC08D3261F080338F
S11312A069F4232D216016C0832D8260382EE32D2E
S11312B0E4603E2E2AC0F32DF8601DC037FC2DC01B
S11312C020ED280F2A3040F08E32B9F436FC81C16B
S11312D0232D2064322E19C036FE06C08AE0989E63
S11312E0200D1124922E11C0EAE02E9E200D11240F
S11312F0222EF32DF0623F2E08C08C3621F4832D6C
S11313008068382E02C0883641F4F70193FD859138
S113131093FF81917F018111B3CF982F9F7D9554C5
S1131320933028F40C5F1F4F9FE399830DC08336DD
S113133031F0833771F0833509F059C021C0F801C9
S1131340808189830E5F1F4F88248394912C5301DD
S113135013C02801F2E04F0E511CF801A080B180A7
S113136036FE03C0692D70E002C06FEF7FEFC50148
S11313700E94FE0A4C018201F32DFF773F2E16C016
S1131380280122E0420E511CF801A080B18036FEF3
S113139003C0692D70E002C06FEF7FEFC5010E94AA
S11313A0F30A4C01F32DF0683F2E820133FC1BC07D
S11313B0822D90E088169906B0F4B60180E290E0A0
S11313C00E94090B2A94F4CFF50137FC859137FE6E
S11313D081915F01B60190E00E94090B21102A94CB
S11313E021E0821A91088114910471F7E8C08436CF
S11313F011F0893641F5F80137FE07C0608171812B
S1131400828193810C5F1F4F08C060817181072E18
S1131410000C880B990B0E5F1F4FF32DFF763F2EA8
S113142097FF09C090958095709561957F4F8F4F78
S11314309F4FF0683F2E2AE030E0A3010E94450B45
S1131440882E861845C0853731F4232D2F7EB22E81
S11314502AE030E025C0932D997FB92E8F36C1F054
S113146018F4883579F0B5C0803719F0883721F041
S1131470B0C0E92FE061BE2EB4FE0DC0FB2DF460B8
S1131480BF2E09C034FE0AC0292F2660B22E06C022
S113149028E030E005C020E130E002C020E132E085
S11314A0F801B7FE07C060817181828193810C5F6E
S11314B01F4F06C06081718180E090E00E5F1F4F76
S11314C0A3010E94450B882E8618FB2DFF773F2E23
S11314D036FE0DC0232D2E7FA22E891458F434FE1F
S11314E00BC032FC09C0832D8E7EA82E05C0B82CFB
S11314F0A32C03C0B82C01C0B92CA4FE0FC0FE015C
S1131500E80DF11D8081803321F49A2D997EA92E56
S113151009C0A2FE06C0B394B39404C08A2D867891
S113152009F0B394A3FC11C0A0FE06C0B21488F461
S1131530280C922C9B180EC0B21460F4B60180E201
S113154090E00E94090BB394F7CFB21418F42B184F
S113155002C0982C212CA4FE10C0B60180E390E0B8
S11315600E94090BA2FE17C0A1FC03C088E790E00B
S113157002C088E590E0B6010CC08A2D867859F047
S1131580A1FE02C08BE201C080E2A7FC8DE2B6019D
S113159090E00E94090B891438F4B60180E390E0CE
S11315A00E94090B9A94F7CF8A94F301E80DF11D78
S11315B08081B60190E00E94090B8110F5CF2220B2
S11315C009F442CEB60180E290E00E94090B2A940D
S11315D0F6CFF6018681978102C08FEF9FEF2B969D
S11315E0E2E10C94BF0BFC010590615070400110C6
S11315F0D8F7809590958E0F9F1F0895FC01615038
S1131600704001900110D8F7809590958E0F9F1F20
S113161008950F931F93CF93DF93FB01238121FD43
S113162003C08FEF9FEF2CC022FF16C04681578165
S1131630248135814217530744F4A081B1819D016F
S11316402F5F3F4F318320838C93268137812F5F17
S11316503F4F3783268314C08B01EC01FB010084C8
S1131660F185E02D0995892BE1F6D80116968D9127
S11316709C911797019617969C938E931697CE017B
S1131680DF91CF911F910F910895FA01AA27283075
S113169051F1203181F1E8946F936E7F6E5F7F4F3B
S11316A08F4F9F4FAF4FB1E03ED0B4E03CD0670FB7
S11316B0781F891F9A1FA11D680F791F8A1F911D0A
S11316C0A11D6A0F711D811D911DA11D20D009F45A
S11316D068943F912AE0269F11243019305D31939C
S11316E0DEF6CF010895462F4770405D4193B3E085
S11316F00FD0C9F7F6CF462F4F70405D4A3318F02C
S1131700495D31FD4052419302D0A9F7EACFB4E0DC
S1131710A6959795879577956795BA95C9F7009794
S11317206105710508959B01AC010A2E0694579535
S1131730479537952795BA95C9F7620F731F841F8C
S1131740951FA01D08952F923F924F925F926F9222
S11317507F928F929F92AF92BF92CF92DF92EF923D
S1131760FF920F931F93CF93DF93CDB7DEB7CA1BBE
S1131770DB0B0FB6F894DEBF0FBECDBF09942A88E9
S1131780398848885F846E847D848C849B84AA8491
S1131790B984C884DF80EE80FD800C811B81AA811E
S11317A0B981CE0FD11D0FB6F894DEBF0FBECDBFE9
S10B17B0ED010895F894FFCF48
S11317B800040404150E040000040E1504040400B7
S11317C803526F6262790031323334004E69626FBA
S11317D8426C756520436F6E66696700656D707449
S11317E8790053323A022053333A012053343A4FA2
S11317F84B00426175643F20002D3E4154003E2059
S1131808004669726D776172653F0041542B5645F5
S11318185253494F4E004E69626F2D4E723A00532F
S1131828323A2D2053333A2B2053343A4F4B00414C
S1131838542B4E414D4525732575002D3E004154CA
S11318482B50494E25730042617564204E65773FDD
S1131858200041542B424155442575004572726F4E
S11318687200B004000060090000C0120000802566
S11118780000004B00000096000000E100009C
S9030000FC
